:020000040800F2
:10000000D00A0020E10100082F400008A9320008B2
:100010002D4000088D0F0008D146000800000000A8
:100020000000000000000000000000003340000855
:100030009D10000800000000314000083540000815
:10004000FB010008FB010008FB010008FB010008A0
:10005000FB010008FB010008FB010008FB01000890
:10006000FB010008FB010008FB010008FB01000880
:10007000FB010008FB010008FB010008FB01000870
:10008000FB010008FB010008FB010008FB01000860
:10009000FB010008FB010008FB010008FB01000850
:1000A00005410008294100081D41000811410008D0
:1000B000FB010008FB010008FB010008FB01000830
:1000C000FB010008FB010008FB010008FB01000820
:1000D000FB010008FB010008FB010008FB01000810
:1000E000FB010008FB010008FB010008FB01000800
:1000F000FB010008FB010008FB010008FB010008F0
:10010000FB010008FB010008FB010008FB010008DF
:10011000FB010008FB01000835410008FB01000855
:10012000FB010008FB010008FB010008FB010008BF
:10013000FB010008FB010008FB010008FB010008AF
:10014000FB010008FB010008FB010008FB0100089F
:10015000FB010008FB010008FB010008FB0100088F
:10016000FB010008FB010008FB010008FB0100087F
:10017000FB010008FB010008FB0100080000000073
:10018000FB010008FB010008FB010008FB0100085F
:10019000FB010008FB010008FB010008FB0100084F
:1001A000FB010008FB010008FB010008FB0100083F
:1001B000FB010008FB010008FB010008FB0100082F
:1001C000FB010008FB010008DFF810D000F0A4F8E4
:1001D00000480047514F0008AFF30080D00A0020CC
:1001E0000648804706480047FEE7FEE7FEE7FEE7D1
:1001F000FEE7FEE7FEE7FEE7FEE7FEE7E940000870
:10020000C90100082DE9F05F0546002092469B4693
:1002100088460646814640241BE02846414647461C
:10022000224600F069F853465A46C01A914110D34D
:1002300011461846224600F050F82D1A67EB0108C7
:100240004F4622460120002100F047F817EB000935
:100250004E41201EA4F10104DFDC484631462A4607
:100260004346BDE8F09F40EA01039B0703D009E045
:1002700008C9121F08C0042AFAD203E011F8013B92
:1002800000F8013B521EF9D27047D2B201E000F8EB
:10029000012B491EFBD270470022F6E710B513462A
:1002A0000A4604461946FFF7F0FF204610BD30B558
:1002B0000B46014600202022012409E021FA02F524
:1002C0009D4205D303FA02F5491B04FA02F52844BE
:1002D000151EA2F10102F1DC30BD202A04DB203A18
:1002E00000FA02F1002070479140C2F1200320FA89
:1002F00003F3194390407047202A04DB203A21FA87
:1003000002F00021704721FA02F3D040C2F120022E
:100310009140084319467047064C074D06E0E068D7
:1003200040F0010394E8070098471034AC42F6D33C
:10033000FFF74EFF446B0008646B00081CB50446D1
:1003400000F07CFA034600F069FA02460020CDE98D
:1003500000040648064C006800EB800101EBC00178
:1003600004EB8101C96D03F0D9F91CBD8C0000209C
:10037000EC0300200648C02330B4082405220460A2
:1003800061034361C261C16230BC01F097BE0000ED
:100390006803002030B40A4C0A4B246804EB440480
:1003A00003EB84039B689C881D68E41DDB88E408DC
:1003B000203A14FB02F203FB025230BC00F070BE84
:1003C0008C000020D4040020094810B50068816921
:1003D00041F00101816101220648110301F077FA21
:1003E00001220548BDE81040082101F070BA000064
:1003F000EC03002000200240002802402DE9F047D5
:10040000002704461546894610463A4600E0521C2D
:1004100010F8011B0029FAD100F000FADFF89CC0A7
:10042000012B274EDCF8001001EB410106EB8101A6
:1004300089688988B0FBF1F002D0022B09D104E071
:10044000801A484304EB500002E0801A4843001B26
:1004500084B247F6FF71601E884200D30124E04653
:1004600000F0DCF90146D8F8000000EB400006EB94
:1004700080008068808807FB101189B2814213D305
:10048000012012E049462046FFF784FFD8F800001B
:100490007F1CBFB26D1C00EB400006EB8000806843
:1004A0008088204484B2DBE700202A780AB1012149
:1004B00000E000210842E5D1BDE8F0878C00002073
:1004C000D40400202DE9FF4F8246144603208946BC
:1004D0000025A0EB440878E03E4EA9EB040B3E4F0C
:1004E0000AEB0500316801EB410157F821201FFAA2
:1004F0008BF1039080B200F0AFF830681FFA8BF1F7
:1005000000EB400057F82020AAEB0500029080B2D3
:1005100000F0A2F83068A9EB050B1FFA8BF100EB95
:10052000400057F820200AEB0400019080B200F050
:1005300093F830681FFA8BF100EB400057F8202049
:10054000AAEB0400009080B200F086F8316809EB55
:10055000040B039801EB410180B257F821201FFAE8
:100560008BF100F079F830681FFA8BF100EB400056
:1005700057F82020029880B200F06EF8326809EB3C
:10058000050B01981FFA8BF102EB420280B257F87B
:10059000222000F061F832681FFA8BF1009802EB1C
:1005A000420280B257F8222000F056F8B8F1000F4E
:1005B00004DA08EB850000F1060805E0291B641E3B
:1005C00008EB810000F10A086D1CA54284D9BDE842
:1005D000FF8F00008C000020D40400207CB51C4B51
:1005E00006460D461B4C186800EB800101EBC0006D
:1005F00004EB8000806C02281BD000F00FF9196812
:1006000000FB056001EB810505EBC10104EB8101F5
:10061000C96D01EB800118680E4D0024E83500EB30
:10062000400355F82330CDE90043012303F076F869
:100630007CBD00F0F3F8196800FB056001EB810553
:1006400005EBC10104EB8101C96D01EB4001E2E75B
:100650008C000020EC030020164B70B506460D46BA
:100660001868154C00EB800101EBC00004EB800022
:10067000806C02280ED000F0D1F8196805FB0060EC
:1006800001EB810303EBC10104EB8101C96D41F86A
:10069000202070BD00F0C2F8196805FB006001EB76
:1006A000810303EBC10104EB8101C96D21F8102026
:1006B00070BD00008C000020EC0300202DE9F74FF6
:1006C000DFF8B49014460320DFF8B0A0A0EB440696
:1006D0000F4600259046D9F8000082B000EB40019B
:1006E0005AF8210000F006FA4FF6FF7B31E08CB19A
:1006F00002980BEA44027B19001BCDE9000299B273
:1007000080B2FFF76BFF0098791B89B2019A80B223
:10071000FFF764FF8DB102980BEA45023B1B401BBB
:10072000CDE9000299B280B2FFF758FF009839195D
:1007300089B2019A80B2FFF751FF002E03DA06EB6F
:100740008506B61D04E0281B641E06EB80060A36EB
:100750006D1CA542CBD9D9F8000000EB40015AF836
:10076000210000F0C7F9029805B042463946BDE8BD
:10077000F04FFFF7A7BE00008C000020D40400203B
:100780002DE9FC419846234B0746234E15460C465F
:10079000186800EB400056F8200000F0ABF918682C
:1007A000A6F1E80200EB800101EBC00002EB800043
:1007B000806C02281FD000F031F8196800FB04702B
:1007C00001EB810404EBC10102EB8101C96D01EB76
:1007D000800400BF00F022F8411B1868434600EB7C
:1007E000400256F82220CDE900122A46214602F0A6
:1007F00095FFBDE8FC8100F011F8196800FB04705A
:1008000001EB810404EBC10102EB8101C96D01EB35
:100810004004DFE78C000020D40400200548006875
:1008200000EB800101EBC000034901EB8000006E8A
:10083000704700008C000020EC0300200548006891
:1008400000EB800101EBC000034901EB8000406E2A
:10085000704700008C000020EC0300202DE9F041DF
:10086000224C2820092140F21B1604F1140840F202
:100870001525352240F21D1C0B2340F2352788E850
:10088000EF1000212046FFF775FD4FF4F07222664D
:100890004FF488716166002084F8340084F83500D4
:1008A00084F836006060A060114AE0602260206138
:1008B000204601F04EFA18B90021204600F05CF8FD
:1008C0000A4801F049FA01220A48110300F0FFFF2B
:1008D00009480122082100F0FAFF00F01DF907483D
:1008E00000F0FAF80020BDE8F0810000EC030020E1
:1008F00000680140002002400028024090000020D3
:1009000030B58DB00A46002304460093FFF786FFFA
:10091000CDE90103FFF792FFFF21039007208DF837
:10092000303009924FF4C0658DF83130CDE9043193
:1009300006938DF83230CDE90750FFF76FFF0A902C
:10094000FFF77CFF0B9022460948694601F0D8F971
:10095000074904EB44004FF0FF34E83101EB80021B
:1009600023065460034C946041F820300DB030BD34
:10097000EC030020900000204748F0B5016887B0E4
:1009800041F080610160006800F08060059042489D
:100990001438016841F400010160016801F40001AC
:1009A0000591016841F010010160016801F010013A
:1009B0000591016841F040010160016801F04001CA
:1009C0000591016841F480710160016801F4807152
:1009D0000591016841F400710160016801F4007142
:1009E0000591016841F480610160016801F4806152
:1009F0000591016841F480710160016801F4807122
:100A00000591016841F480610160006802240E25AF
:100A100000F4806005901020CDE9000402A80021B8
:100A200080E832001D48694600F060FEE602694633
:100A3000092004901A48CDE9006400F057FE194FD0
:100A40004FF46640CDE9000469463846049500F04D
:100A50004DFE4EF6FF706946CDE90004124804953C
:100A600000F044FE0495F720104D6946CDE90004DE
:100A7000284600F03BFE012469463846CDE9006473
:100A800000F034FE08206946CDE90004284600F055
:100A90002DFE07B0F0BD00004438024000100240B7
:100AA00000180240002002400024024000280240BA
:100AB00001490860704700008C0000200449054A85
:100AC000096801EB410102EB8101486070470000B9
:100AD0008C000020D40400200449054A096801EB79
:100AE000410102EB81018860704700008C0000200A
:100AF000D40400200349044A096801EB410142F88B
:100B0000210070478C000020D404002002460148D8
:100B100001F024BAEC0300201B4802222DE9F04129
:100B200000F13401174E07230660042581E82C00EC
:100B3000CB6000240A61D7014A6110238A619102C7
:100B400044604026C0E902454A00C0E90741C0E9C7
:100B500009241030002180E8C800103800F05EF849
:100B600009490948343102F045F8084D10B1012017
:100B7000287000E02C7040F2036000F009F828783B
:100B8000BDE8F081400100A0AC05002098000020E5
:100B90002DE9F843204C102700254FF6FF78012659
:100BA000009521468146C4E90067C4E90265A1F1C8
:100BB0005000424602F052F8012000F02BFD0220C6
:100BC0002146C4E90007C4E90265A1F1500042468C
:100BD00002F044F803214246C4E9001708202146E8
:100BE000C4E90205A1F1500002F038F84FF4087092
:100BF000009004214246C4E90260C4E9001721467E
:100C0000A1F1500002F02AF8A4F150004946BDE8D5
:100C1000F84302F012B80000FC050020F0B50446CD
:100C20004F4887B0016841F00101016000684C49FC
:100C300000F0010005900839086840F48000086061
:100C4000086800F480000590086840F0040008601F
:100C5000086800F004000590086840F0080008608B
:100C6000086800F008000590086840F0100008606F
:100C7000086800F010000590086840F02000086047
:100C8000086800F020000590086840F04000086007
:100C9000086800F040000590086840F08000086097
:100CA000086801210C2200F0800005900220CDE9A7
:100CB000010108230093CDE903022A48694600F0A8
:100CC00015FD4CF2037000902748694600F00EFDB8
:100CD0004FF6837000902548694600F007FD4FF6F7
:100CE0003F0000902248694600F000FD48F23310B2
:100CF00000902048694600F0F9FC282000901E482A
:100D0000694600F0F3FC1D494FF4007500224FF0D6
:100D1000800CEE006F004A606801C1E902C5C1E9BC
:100D200004761831164EC300032581E80D00C1E991
:100D300003254A618A6141F8186D21630F488C636D
:100D400000F0C5FB0D4800F0F3FB00220F21382016
:100D500001F04CF9382001F03BF907B0F0BD00007C
:100D60003838024000080240000C024000100240E7
:100D70000014024000180240001C0240EC04002055
:100D8000106402402DE9F04F95B0584D4FF0000B24
:100D900006465C46CDF844B0CDF848B0CDF84CB02E
:100DA000A868016968788847002830707ED00024E0
:100DB0000DF1100A0DF1380908AF8BE0A8680DF1AC
:100DC0002C080AEB440208EB440143696878984711
:100DD0002878012807D138F8142029F814203AF887
:100DE000141027F81410810705D538F81410C1F530
:100DF000805129F81410410705D53AF81410C1F5AF
:100E0000805127F81410000707D538F8140027F888
:100E100014003AF8141029F81410DFF8D48039F8C7
:100E2000140058F82410884201D9421A00E00A1A26
:100E30002F491FFA82FC37F81420143151F824305E
:100E40009A4201D9D31A00E09B1A9BB26344052B46
:100E500003D948F8240041F8242095F801C0BCF1DA
:100E6000700F26D058F8242006EB44006B885A43B4
:100E7000120B428051F82410AA885143090B81813A
:100E800013A8214612AB009011AA604603F074FD2E
:100E9000301911998175129980F82010139979B140
:100EA00001290FD0022910D0032900E01AE010D147
:100EB0000DE006EB4401488037F814008881DFE735
:100EC000012100E00221C17603E00321FBE780F865
:100ED0001BB0641C3078A0423FF670AF304600F083
:100EE00009F8044615B02046BDE8F08F9C000020AC
:100EF0000C060020F8B50446144800266946009602
:100F00003546407803F028FD0098182816D005DCF7
:100F100068B110280DD0142806D10CE01C280FD081
:100F200040280FD049280FD001252846F8BDA662D9
:100F3000FBE7012000E00220A062F6E70320FBE7C8
:100F40000420F9E70520F7E70620F5E79C000020DC
:100F500070B50C4C00260C4D60807020A180296873
:100F60008847696870208847512802D00326304698
:100F700070BDA5607020607008212170E968884705
:100F8000F5E700009C000020A8000020FEE7F0B577
:100F9000059C44EA034503685C6C04F040442C4320
:100FA0005C640368DA634268B2F5403F02D00068CF
:100FB000C160F0BD01F47F42856801F47F042243E3
:100FC00001F07F4301F47F0701F47F46CCB2BDB14D
:100FD000012D16D001F47F02C1F3C401D20C022D01
:100FE00011D0032D14D0320B390D15011A0F45EA1B
:100FF0000123210943EA02320A4300688263F0BDFB
:101000001A432243F9E7B30A5B0143EAC222F3E73A
:10101000F40ADB0F640144EA822242EAC332EBE7BE
:1010200001681823CAB2103AB2FBF3F2054B6FF312
:101030000901032A9B5CC36500D9091D8165084627
:10104000704700006C50000810B583694FF0C07401
:10105000826A0146002053B1B3F5005F15D072B12A
:10106000012A0CD0022A0AD0032A09D104E01AB1BD
:10107000012A06D0022A03D1C96AC90100D501207C
:1010800010BDC96AA142FAD010BD002AF7D0012ACA
:10109000F2D0022AF3D0032AF3D010BD704700002B
:1010A0002DE9F74F29480026DFF89CA0006800EBE7
:1010B00040000AEB800080688588C788E81D834669
:1010C00020F00700401B00F0FF0939E04FEADB0188
:1010D0000298012901FB060009D0022909D00178F4
:1010E00042788378080440EA0220184303E000783D
:1010F00001E0008840BA002480461AE02A1B02EB77
:1011000009010120491E884010EA080F009800EBF1
:1011100004020E48016890B201EB410202D05AF875
:10112000222002E00AEB82014A680199FFF794FA53
:10113000641CAC42E2D30198401C80B20190761C42
:10114000BE42C3D3BDE8FE8FD40400208C00002033
:10115000F0B5D1E90125D1E90343D1E905762A4368
:10116000D1F800C044EA0304D1E9073542EA040299
:10117000496A42EA0702BCF1010F42EA060208D0BE
:1011800004681A432A430A43E30BDB031A43026051
:101190000BE0066844682B4326F4F84529430B43CB
:1011A00003606FF30E04224342600020F0BD4269E9
:1011B00042EA410141610020704738B591E81C00C6
:1011C000C9686FF01F051A4305EB441444EA412136
:1011D0000A4300920261002038BD00002DE9F0436F
:1011E000914691E81C006FF00F05521E2E0105EB91
:1011F00003131A430B7E06EB04268C8A2F034FEA57
:10120000054C0D8A32434FF07F4808EB0366CB68EC
:10121000B9F1010F07EB05450CEB04540CD08168C4
:101220003F1107EB03331A432A432243324301F0B1
:1012300070410A43826011E08168DFF828C0C76806
:101240001B03A3F5805323432A4301EA0C013243D5
:101250000B43836007F070442243C2600020BDE866
:10126000F0830000FF0F0FFF70B590F83820012ABF
:1012700023D0244C012680F83860022300EB0112B1
:1012800080F83930158CD36918320A2B43EA0545AA
:1012900015D0092B13D0137B45EA0363056899B178
:1012A000E969A1431943E961016813680B61516859
:1012B0000A291BD0092919D01DE0022070BDD3686E
:1012C00003F07F432B43E9E7696AA143194369624D
:1012D000016813688B6151680A2901D009290AD174
:1012E000D168026821F07F41916204E0D168026810
:1012F00021F07F411162002180F8396080F83810B8
:10130000084670BD0F0003FF70B5040004D094F8C8
:101310003900002510B106E0012070BD204684F898
:10132000385000F01FF8022084F83900D4E9000397
:101330000121026822F440321A4302602068A36847
:10134000426B22F007021A4342632068E368026C92
:101350006FF30D021A430264E56384F8391000202C
:1013600070BD000008B500680649884208D10648EB
:10137000016841F400010160006800F40000009081
:1013800008BD000000B00240303802402DE9F843AB
:101390000026044604270D4600964FF00308006817
:1013A0000068C00726D000F097FA81461EE040682A
:1013B000009010F0210F10D00098800603D5E06B4C
:1013C00040F00200E0630098C00703D0E06B40F0FB
:1013D0000100E0632168212035E0681C06D000F0A0
:1013E0007BFAA0EB0900A8424DD8A5B3206841685C
:1013F0008907DCD52068C169406A01F0200100F04E
:101400002000084335D000F067FA81462DE040689F
:10141000009010F0290F1FD00098000703D5E06B53
:1014200040F00400E0630098800603D5E06B40F0D4
:101430000200E0630098C00703D0E06B40F00100B9
:10144000E06321682920886084F83970012084F8DD
:101450003860BDE8F88316E0681C06D000F03CFA5E
:10146000A0EB0900A8420ED86DB120684168C906FA
:10147000CDD5226812210120916084F83900002026
:1014800084F83860E5E7E16B84F8386041F02001CA
:10149000E16384F839800320DBE7F8B50446069859
:1014A00094F83850012D10D0012684F838600225B8
:1014B00084F8395000902046FFF769FD20680168E4
:1014C00041F0010101600020F8BD0220F8BD70B5B7
:1014D00004002BD094F83500022826D0206800257F
:1014E0002122016821F00101016020680560206867
:1014F0004560206885602068C560206805612068B7
:1015000042612046FFF78CFD94F85C203F2191401A
:101510008160E56325646564A564E56425656565AA
:1015200084F83550002084F8345070BD012070BD1F
:101530002DE9F047044600F0CFF9054664B14FF0BD
:10154000000984F83490022184F83510206801687D
:1015500021F0010101600EE00120BDE8F08700BF2D
:1015600000F0BAF9401B052805D920216165032048
:1015700084F83500F1E720680068C007F0D1D4E9AD
:101580000020D4E90251D4E9043C284304F11805B1
:1015900019430843116895E8E00140EA0C001C4B30
:1015A0002843194040EA060040EA0700B8F1040F5A
:1015B00040EA010003D1D4E90B131943084310603A
:1015C00020680126656A4069042D20F0070045EA7D
:1015D00000050CD1D4E90A01054341B12046FFF7CB
:1015E00033FD20B14020606584F83560B4E72068A1
:1015F00045612046FFF714FD94F85C303F229A4085
:101600008260C4F8549084F835600020A5E700009B
:101610003F8010F070B5044600F05EF90546601C8E
:1016200002D004480078044400F056F9401BA04260
:10163000FAD370BD7C000020F0B587B01421684655
:10164000FEF72AFE2148016800293CD101210160F2
:101650001F48016841F00101016000680224002573
:10166000694600F00100059003264FF683700C27B1
:101670008DE8F100174800F039F848F23310694658
:101680008DE8F100144800F031F84CF2037069461F
:101690008DE8F100114800F029F84FF63F00694647
:1016A0008DE8F1000E4800F021F8282069468DE809
:1016B000F1000C4800F01AF8082069468DE8F100A6
:1016C000094800F013F807B0F0BD000074000020D6
:1016D000383802400010024000180240000C02405E
:1016E00000140240001C0240000802402DE9F84F9F
:1016F00000224FF001094FF0030A4FF00F0E00BF18
:101700000B6809FA02F42340A34270D14D68012D01
:1017100005D0022D03D0112D01D0122D11D18568D5
:101720005700CE680AFA07FC25EA0C05BE402E4396
:10173000866045680E79A543C6F3001696402E4391
:101740004660C56856008F680AFA06F4A543B7409C
:101750002F43C7604D68022D01D0122D12D1D5083C
:101760000F694FEA427C00EB8505AB462D6A4FEAD4
:10177000DC6C0EFA0CF807FA0CF725EA08052F4383
:10178000CBF820700D79076805F00305A743B54035
:101790003D4305604C68E40074D53D4C256845F434
:1017A00080452560246822F00307960704F48044EE
:1017B0000094384C360F2744D7F80848DFF8D8C0D3
:1017C0000EFA06F5604524EA050401D100252EE055
:1017D000324DA84201D1012529E0314DA84201D165
:1017E000022524E02F4DA84202D103251FE049E045
:1017F0002D4DA84201D1042519E02C4DA84201D15C
:10180000052514E02A4DA84201D106250FE0294DF7
:10181000A84201D107250AE0274DA84201D1082599
:1018200005E0264DA84201D1092500E00A25B54072
:10183000234E2543C7F808584D683468ED0324EA61
:10184000030400D51C431E4D34602D1D4E682C68CA
:10185000B60324EA030400D51C43194E2C60083655
:101860004D683468ED0224EA030400D51C43144D8E
:1018700034600C354E682C68B60224EA030400D5A7
:101880001C432C60521C102AFFF43AAFBDE8F88FBD
:101890004438024000300140000002400004024091
:1018A00000080240000C02400010024000140240F8
:1018B00000180240001C02400020024000240240A8
:1018C000003C01400069084000D0012070470AB187
:1018D000816170470904FBE7014880687047000098
:1018E0007C00002010B5040014D0242084F84100AE
:1018F0002068016821F001010160204600F0CAF96A
:101900000020606484F84100206384F8420084F879
:10191000400010BD012010BD90F84100704700004C
:1019200070B5040004D094F84100002510B106E021
:10193000012070BD204684F8405000F0ACF924200E
:1019400084F841002068016821F001010160D4E9B8
:10195000001020F0706008612068816821F4004167
:101960008160E06821680128A06806D040F4044046
:101970008860E068022803D006E040F40040F7E702
:1019800021684FF40060486020212068114A4368B4
:10199000134343602068C26822F40042C26054F8D6
:1019A000106B0DCC104340EA0320F06054F81C3C4F
:1019B000D4E900021043186054F81C0D026842F08C
:1019C00001020260656484F84110256384F8425086
:1019D000002070BD008000022DE9FF4F83B0044657
:1019E00090F841009A469346DDE91087DDF848906B
:1019F000202874D15FEA080014D09FB194F8400009
:101A000001286CD0012084F84000FFF765FF012217
:101A1000064619230090D103204601F015FD002849
:101A200071D103E04FF4007060646CE00025C4F8ED
:101A30002480222184F84110402084F8420065640B
:101A40006785534665635A4604992046CDE900965A
:101A500001F080FC10B184F8405054E0618DFF2704
:101A600034484FF08078FF294FF0007A04D9278559
:101A70003A464346009005E0618D5346218500902B
:101A800094F828202046049901F0C8FC00224B4617
:101A900004212046009601F0D7FCA0BB2068616AB3
:101AA000406A0870606A401C6062208D401E81B2EE
:101AB0002185608D401E6085608DD8B1D1B900222E
:101AC0004B4680212046009601F0BEFCD8B9608DBF
:101AD000FF2805D927853A464346009506E026E0CB
:101AE000608D53462085009594F82820204604995F
:101AF00001F094FC608D0028C8D13246494620464A
:101B000001F0CFFC18B1012007B0BDE8F08F2168CB
:101B10002020094AC86121684B6813404B6084F853
:101B2000410084F84250002084F84050ECE7022045
:101B3000EAE700000024008000E800FE2DE9FF4FE6
:101B400083B0044690F841009A469346DDE9108739
:101B5000DDF84890202871D15FEA080014D09FB1C9
:101B600094F84000012869D0012084F84000FFF774
:101B7000B3FE0122064619230090D103204601F04E
:101B800063FC00286ED103E04FF40070606469E0EC
:101B90000025C4F82480212184F84110402084F8D5
:101BA000420065646785534665635A46049920463A
:101BB000CDE9009601F000FC10B184F8405051E0EE
:101BC000608DFF274FF08078FF284FF0007A04D90E
:101BD00027853A464346009505E0608D53462085AB
:101BE000009594F828202046049901F017FC32460D
:101BF0004946204601F07CFCA0BB606A2168007861
:101C00008862606A401C6062608D401E6085208D25
:101C1000401E80B22085618DD9B1D0B900224B46DB
:101C200080212046009601F00FFCD8B9608DFF2876
:101C300005D927853A464346009506E026E0608DA3
:101C400053462085009594F828202046049901F0F9
:101C5000E5FB608D0028CAD132464946204601F096
:101C600020FC18B1012007B0BDE8F08F20682021CA
:101C7000074AC161206843681340436084F84110FB
:101C800084F84250002084F84050ECE70220EAE754
:101C900000E800FE704770470248816802781144EE
:101CA000816070477C000020032010B500F0BEF971
:101CB000002000F005F800F073F9002010BD0000CE
:101CC00070B50D4D04464FF47A700C4A29781268AD
:101CD000B0FBF1F0B2FBF0F000F0D8FF48B9102CE7
:101CE00007D200222146501E00F080F900206C60CF
:101CF00070BD012070BD00007C0000208800002025
:101D00002DE9F041044690F8A00016460F46012840
:101D10001DD0012584F8A050022084F8A10006EB14
:101D2000860000EBC600342204EB80003830FEF75A
:101D30009AFA32463946204601F030FD21680020EB
:101D40004D6284F8A15084F8A000BDE8F081022023
:101D5000FBE790F8A10070472DE9F041040004D0A2
:101D600094F8A100002518B107E00120BDE8F0813A
:101D7000204684F8A05000F06BF83448022184F823
:101D8000A110012202CC8B6923F070438B6194E88F
:101D90004A001943E3681E4354F8043D31439E69E9
:101DA0003143996121688B6803408B602168A68A62
:101DB000A7698B683B4343EA06438B602168CB6885
:101DC0000340CB602168A38B276ACE683E4346EA76
:101DD0000346CE6021680B6903400B612368A68C23
:101DE000A76A1969394341EA0641196121684B69BB
:101DF00003404B612068A38D266B4169314341EA62
:101E000003414161236894F8351094F83600DE6A86
:101E1000000406F07F46DE62236840EA012094F861
:101E20003460D96A31430143D9622068416B41F083
:101E3000060141632068816941F001018161C4F8B4
:101E4000A45084F8A120002090E7000000F800F0E2
:101E500070B586B0044614216846FEF71DFA38496D
:101E6000206888426AD13748016841F0806101608A
:101E7000006800F08060059032481438016841F035
:101E800010010160016801F010010591016841F441
:101E900000710160016801F400710591016841F46D
:101EA00080610160016801F480610591016841F081
:101EB00040010160016801F040010591016841F4B1
:101EC00080710160006800240E26694600F480706D
:101ED00005901020009002251B48CDE90154CDE962
:101EE0000346FFF703FC4EF6FF700090CDE9015466
:101EF00016486946CDE90346FFF7F8FBF720009046
:101F0000CDE9015412486946CDE90346FFF7EEFBDF
:101F10000921E8020090CDE90154CDE903410D48C3
:101F20006946FFF7E3FB4FF446400090CDE90154CA
:101F300009486946CDE90346FFF7D8FB06B070BDF6
:101F40000068014044380240001002400024024072
:101F500000280240001802400020024070B50446EC
:101F600090F8A0000B46012818D002EB820000EB8D
:101F7000C201012584F8A050022084F8A10004EBDE
:101F800081012046CB64383101F008FC2168002033
:101F90004D6284F8A15084F8A00070BD022070BD8D
:101FA0000A4808B5016841F080510160006800F0FE
:101FB000805000900548001D016841F48041016097
:101FC000006800F48040009008BD000040380240E6
:101FD000002809DB410900F01F028900012001F1FE
:101FE000E0219040C1F80001704700000E4BF0B4B2
:101FF0001B680D46C3F30223C3F10706042E00D964
:102000000426191D072901D2002300E0DB1E01244C
:1020100004FA06F19C40491E2940641E9940144070
:102020002143F0BC02F06ABB0CED00E0064900F071
:10203000070210B54FF6FF040868044B204040EA41
:1020400002201843086010BD0CED00E00000FA0506
:102050001848F8B5016841F0805101600068164CDD
:1020600000F080500090206840F480302060FFF73E
:1020700033FC4FF47A76054605E000BFFFF72CFCF1
:10208000401BB0420FD86068C003F7D5206840F409
:1020900000302060FFF720FC054606E0FFF71CFC3F
:1020A000401BB04201D90320F8BD60688003F5D51C
:1020B0000020F8BD40380240007000402DE9F84F84
:1020C00004460078DFF824944FF000063746C00736
:1020D0000ED0D9F8001021F40001C9F80010D9F889
:1020E0000010626B1143C9F80010606B00B9012643
:1020F000FE4D2068843500030ED5E16B286820F47E
:10210000401008432860E06BB0F5801F01D010B18B
:1021100002E0012600E0012720684FF4800BC00296
:102120000CD5216C286820F4400008432860206CFE
:10213000584501D1012601E000B901272068C101FD
:1021400000D50126800666D5E8483830016841F0A0
:10215000805101600068DFF898A300F08050009083
:10216000DAF8001041F48071CAF80010FFF7B4FBF0
:10217000804605E0FFF7B0FBA0EB080064287DD89F
:10218000DAF80000C005F5D5DFF8608308F16808CB
:10219000D8F8000010F440702AD0218E01F440716C
:1021A000814225D0D8F80010D8F8002021F44071E1
:1021B00042F48032C8F80020D8F8002022F480329F
:1021C000C8F80020C8F80010D8F80000C0070FD0E9
:1021D000FFF782FB824607E0FFF77EFBA0EB0A01D8
:1021E00041F288308142CAD8D8F800008007F3D580
:1021F000206BC0F3012103297ED0D9F8001021F40F
:10220000F811C9F80010228ED8F80010C2F30B02A2
:102210001143C8F800102078C00607D5286820F0C0
:10222000807028602868A16B084328602188AF4827
:102230008830490405D5626E016821F440311143AC
:1022400001602188090405D5A26E016821F44021AE
:10225000114301602168C90305D5E26E016821F4CC
:102260004011114301602168890305D5226F01687F
:1022700021F4400111430160217800E018E1490692
:1022800005D5626C016821F00301114301602178DA
:10229000090605D5A26C016821F00C01114301600B
:1022A0002188C90505D5E26C016821F03001114390
:1022B00001602188890505D5226D016821F0C001E2
:1022C000114301602188490505D5626D016821F43B
:1022D0004071114301602188090505D5A26D01688F
:1022E00021F44061114301602188C90407D5E26DE2
:1022F000016821F4405100E041E011430160218870
:10230000890405D5226E016821F440411143016022
:102310002168490205D5A26F016821F0806111434F
:10232000016021684FF0006A890209D5E26F0168F7
:1023300021F0006111430160E16F514500D1012797
:1023400021680A0700D50127490305D5626F016896
:1023500021F04071114301602168090206D5D4F8CB
:102360008020016821F0805111430160DFF88491E1
:10237000012E0ED02068B0F1007F0AD08FE05E4AB7
:10238000D9F80030104023F4F8120243C9F80020B5
:1023900039E7D9F800004E4620F08060C9F8000007
:1023A000FFF79AFA804605E0FFF796FAA0EB0800DF
:1023B00064287DD830680001F6D421784B487C3001
:1023C000C90712D0616B81B9237A62680168D0F8BD
:1023D00000C09201C1F3014142EA0142CCF3036122
:1023E00042EA016141EA0371016021680A0303D5F1
:1023F000E26BB2F5801F04D0C9021AD5216C594591
:1024000017D16368016894F80CC002689B01C1F39E
:10241000014143EA0141C2F3027241EA0C6141EA1F
:10242000027101602968626A21F01F01521E114386
:1024300029602168C90110D5238A62680168D0F833
:1024400000C09201C1F3036142EA034242EA016221
:10245000CCF3027142EA01710160216889010CD557
:102460006168228A237B94F808C0890141EA02410D
:1024700041EA036141EA0C7101603168B04641F004
:1024800080613160FFF728FA064604E0FFF724FA7E
:10249000801B64280CD8D8F800000001F6D56FB373
:1024A000D9F800004E4620F08050C9F8000000E046
:1024B00079E0FFF711FA074605E000BFFFF70CFAD5
:1024C000C01B64286FD83068C0438000F6D5074829
:1024D000216880300A0301D5E26B1AB1C90225D503
:1024E000216C19BB63690168277E08E00838024047
:1024F0000070004000380240FFFCFF0F5AE0026805
:10250000C1F301419B0143EA0143C2F3027143EA73
:10251000076242EA0171016029686FF0FF03A26A55
:1025200021F4F85103EB022211432960216889024A
:1025300012D5E16F51450FD1238C6269016807689C
:102540009201C1F3036142EA034242EA0162C7F326
:10255000027142EA017101602178090716D56169AB
:102560000268D0F800C08B01277FC2F30362CCF36E
:10257000014143EA014141EA026141EA0771016018
:102580002868E16A20F4403008432860306840F051
:1025900080503060FFF7A0F9044607E0FFF79CF990
:1025A000001B642802D90320BDE8F88F3068C043BF
:1025B0008000F3D40020F7E72DE9F04705000F462F
:1025C00063D0444E306800F00F00B84209D2306842
:1025D00020F00F0038433060306800F00F00B84240
:1025E00053D128683C4C810712D5400703D5206899
:1025F00040F4E05020602878000703D5206840F4BC
:1026000060402060A968206820F0F0000843206046
:102610002878C0072AD0304968680839012810D0C6
:102620000968022810D0890700292EDA216821F0D4
:10263000030101432160FFF74FF9804641F28839D9
:102640000DE009688903EFE78901EDE7FFF744F939
:10265000A0EB0801494502D90320BDE8F08768686E
:10266000216801F00C01B1EB800FEFD1306800F070
:102670000F00B8420BD9306820F00F0038433060AB
:10268000306800F00F00B84201D00120E5E728785B
:10269000400705D5E968206820F4E0500843206031
:1026A0002878000706D52869216821F4604141EAAD
:1026B000C000206000F038F82168084AC1F3031117
:1026C000515CC8400649086006480068FFF7F8FA00
:1026D0000020C2E7003C0240083802407450000865
:1026E000880000208000002004490548096800682F
:1026F000044AC1F38221515CC84070470838024047
:1027000088000020845000080449054809680068D2
:10271000044AC1F34231515CC84070470838024056
:102720008800002084500008154910B51548096834
:1027300011F00C0213D01449042A0FD0082A0ED12C
:102740000F4C241F2268236802F03F025B0207D56A
:102750002068C0F38810A0FB010106E0084610BD08
:102760002168C1F38811A1FB00010023FDF74AFD98
:102770002168C1F30141491C4900B0FBF1F010BDD3
:10278000083802400024F40040787D012DE9F84F1C
:1027900004004FF000076ED02078DFF868A3AAF19C
:1027A0000408C007A8F104054CD0DAF80010504620
:1027B000C1F38101012908D00068C0F3810002281B
:1027C0000AD1D8F80000400206D52868800339D520
:1027D00060680028DFD035E06068B0F5803F0BD03E
:1027E00010B1B0F5A02F11D0286820F480302860F7
:1027F000286820F4802002E0286840F480302860B7
:10280000606890B1FFF768F806460AE0286840F46F
:1028100080202860F0E700BFFFF75EF8801B642887
:1028200072D828688003F7D50CE0FFF755F8064604
:1028300005E000BFFFF750F8801B6428F0D8286837
:102840008003F7D42078800742D5DAF8001050468C
:1028500011F00C0F08D00068C0F3810002280BD1E2
:10286000D8F80000400207D42868800718D5E0682F
:10287000012800D114E041E1E0680028286817D061
:1028800040F001002860FFF727F8064605E000BF8A
:10289000FFF722F8801B0228C2D828688007F7D5E6
:1028A0002069296821F0F80141EAC00028600FE0A2
:1028B00020F001002860FFF70FF8064605E000BF92
:1028C000FFF70AF8801B02281ED828688007F7D473
:1028D0002078000729D58B4861696C300029814632
:1028E000016812D041F001010160FEF7F5FF0646D4
:1028F00005E000BFFEF7F0FF801B022804D8D9F8DE
:1029000000008007F6D510E089E021F001010160A8
:10291000FEF7E2FF064604E0FEF7DEFF801B02281A
:102920007DD8D9F800008007F6D4207840076BD511
:10293000DFF8D09109F13809D9F80000C0000BD4B4
:10294000D9F8001041F08051C9F80010D9F8000002
:10295000012700F0805000906B480168C90512D42F
:102960000168834641F480710160FEF7B5FF0646B9
:1029700005E000BFFEF7B0FF801B64284FD8DBF8EE
:102980000000C005F6D55F4EA068683601280AD061
:1029900008B1052811D0306820F00100306030689F
:1029A00020F0040002E0306840F001003060A068D0
:1029B000A0B1FEF791FF83460CE0306840F00400C0
:1029C0003060F0E7FEF788FFA0EB0B0141F28830A2
:1029D000814266D830688007F4D50EE0FEF77CFFB0
:1029E000834607E0FEF778FFA0EB0B0141F2883049
:1029F000814256D830688007F4D42FB1D9F800103E
:102A000021F08051C9F80010A069C8B3DAF80010AD
:102A1000C1F3810102294BD00228286800E040E080
:102A200020F08070286003D0FEF756FF04463BE09C
:102A3000FEF752FF064604E0FEF74EFF801B022819
:102A40002FD828688001F7D4D4E90962D4E90701B6
:102A50002E4B570894F82C20084303EB074343EA16
:102A60008611084340EA026040F00050C8F80000B8
:102A7000286840F080702860FEF72EFF044606E0CC
:102A80003EE000BFFEF728FF001B022809D8286897
:102A90008001F7D534E000BFFEF71EFF001B0228BF
:102AA00002D90320BDE8F88F28688001F4D427E01C
:102AB0000128D8F8000021D0E16900F480028A42A0
:102AC0001CD1216A00F03F028A4217D1626A47F6A0
:102AD000C0710140B1EB821F10D1A16A4FF0FF32EB
:102AE00000F4403302EB5101B3EB014F06D194F8EF
:102AF0002C1000F07060B0EB016F01D00120D1E725
:102B00000020CFE708380240007000400000FFFFBF
:102B10002DE9F0470446007900278A4601280ED0A7
:102B2000607901254FF000092571012809D00420A2
:102B3000A060012784F804903846BDE8F0870220A1
:102B4000FBE74FF0020884F80580FEF7C5FE064655
:102B50000CE000BFFEF7C0FE801B022806D965719D
:102B6000C4F80880012084F80490E6E720684068F3
:102B7000C043C007EED120688068E060CAF800005A
:102B80006571D7E710B500F10C010446FFF7C0FFEF
:102B900008B1002010BDE06810BD70B5040003D07E
:102BA0006079002510B105E0012070BD2046257137
:102BB00000F00CF80220607101212068026842F0E8
:102BC000040202606171A560002070BD08B5006854
:102BD0000649884208D10648016841F04001016079
:102BE000006800F04000009008BD0000000806509A
:102BF0003438024070B504000D4603D094F82C0020
:102C000010B107E0012070BD002084F82D0020469F
:102C100000F011F8022084F82C002068211DFEF736
:102C200097FAD4E900022946FEF7D8FA012084F881
:102C30002C00002070BDFEF7FFBC10B5044690F8D4
:102C40002C00022809D0022084F82C002068FEF70E
:102C5000AEFA012084F82C00002010BD70B50446A7
:102C600090F82C000D4602280DD0022084F82C008C
:102C70002068FEF7A2FA2868022805D05FF001005C
:102C800084F82C00002070BD0520F9E7401EB0F14B
:102C9000807F10B501D3012010BD4FF0E0246061AA
:102CA0000F21601701F02AFD0020A061072121619A
:102CB00010BD704770477047F0B590F83C20012A6E
:102CC0003BD01F4E012480F83C40022280F83D207A
:102CD00002681C4D5368B242D2F808C001D0AA4223
:102CE00003D14F6823F470033B430F6823F0700354
:102CF0001F4357600268B24213D0B2F1804F10D028
:102D0000114B9A420DD0114B9A420AD0104B9A4265
:102D100007D0AA4205D00F4B9A4202D00E4B9A42DE
:102D200004D189682CF0800319439160002180F858
:102D30003D4080F83C100846F0BD0220F0BD000088
:102D40000000014000040140000400400008004071
:102D5000000C0040004001400018004010B5040085
:102D600003D094F83D0010B107E0012010BD002011
:102D700084F83C00204600F00DF8022084F83D0065
:102D80002068211D01F0DCF9012084F83D000020BD
:102D900010BD000010B586B0044614216846FDF74A
:102DA0007BFA2D49206888423FD12C48016841F0C8
:102DB00001010160006800F0010005902748143807
:102DC000016841F00101016000680123022200F066
:102DD0000100059000204FF4807100916946CDE913
:102DE0000120CDE903031E48FEF780FC00221820D5
:102DF0001146FFF7FBF81820FFF7EAF80022192028
:102E00001146FFF7F3F81920FFF7E2F800221A2025
:102E10001146FFF7EBF81A20FFF7DAF800221B2023
:102E20001146FFF7E3F81B2012E00E49884211D14A
:102E30000A48001F016841F010010160006800228B
:102E4000114600F0100005903620FFF7CFF836202D
:102E5000FFF7BEF806B010BD000001404438024044
:102E600000000240001000400168094ACB6843F0AE
:102E70000103CB60016888681040062806D0B0F5D1
:102E8000803F03D0086840F00100086000207047D0
:102E90000700010070B5044690F83C00012817D0E7
:102EA000324B012584F83C50022084F83D00226812
:102EB0009068184020F47F4090600868502830D017
:102EC0000DDC20284DD005DC98B310283BD148E01C
:102ED000022070BD302844D0402834D139E0602829
:102EE00028D0702806D0B0F5805F2CD0B0F5005FF8
:102EF00029D10AE04A682068D1E9021301F086F975
:102F00002068816841F0770109E04A682068D1E9CA
:102F1000021301F07BF92068816841F480418160EF
:102F200011E0CA684968206801F081F920685021E1
:102F300007E016E0CA684968206801F089F920684E
:102F4000602101F06CF9002084F83D5084F83C00C9
:102F500070BDCA684968206801F069F9206840219D
:102F6000EFE7226801461046EBE7000088FFFEFF0E
:102F7000704770B50446006800250169C943890798
:102F800015D4C168C943890711D4EA1E0261012121
:102F90002177206880698007204602D0FFF7E8FF8C
:102FA00004E000F0A7F8204600F0A5F82577206897
:102FB0000169C943490717D4C168C943490713D4F4
:102FC00002216FF00402026121772068806910F409
:102FD000407F204602D0FFF7CBFF04E000F08AF8E4
:102FE000204600F088F8257720680169C943090761
:102FF00016D4C168C943090712D404216FF008022E
:10300000026121772068C0698007204602D0FFF75F
:10301000AFFF04E000F06EF8204600F06CF8257772
:1030200020680169C943C90617D4C168C943C906E4
:1030300013D408216FF01002026121772068C06963
:1030400010F4407F204602D0FFF792FF04E000F02A
:1030500051F8204600F04FF8257720680169C943F0
:10306000C90708D1C168C943C90704D1891E0161D4
:10307000204600F041F820680169C943090609D4D7
:10308000C168C943090605D46FF08001016120467B
:10309000FFF710FE20680169C943C90509D4C1685A
:1030A000C943090605D46FF4807101612046FFF71A
:1030B00000FE20680169C943490609D4C168C943B3
:1030C000490605D46FF040010161204600F070F818
:1030D00020680169C94389060BD4C168C9438906C0
:1030E00007D46FF0200101612046BDE87040FFF772
:1030F000E2BD70BD704770472A4910B52A4C88421E
:1031000017D1606A002802DD606A401E60622748AD
:103110004FF40061FEF7D6FB23494870087828B9C0
:103120004878012802D16068401C606048780870C7
:1031300010BD1C4940318842FAD1E06E401EE06665
:1031400060680028F4D1E06E206F08280ED2DFE816
:1031500000F004071316191C2123A06A401C01E08B
:10316000A06A401EA062E06A401EE062E06E002895
:10317000DED1D220E06610BDA06A401E0DE0A06A3C
:10318000401C0AE0A06A401E01E0A06A401CA06248
:10319000E06AEAE7A06AE5E7A06AA062E06A401C8C
:1031A000E3E70000D00100200000002000200240E2
:1031B000704710B5040002D0606F10B107E0012025
:1031C00010BD002084F87000204600F025F824206F
:1031D00060672068016821F001010160204601F06C
:1031E000F7F80128ECD0606A10B1204601F06EF8C3
:1031F0002068416821F4904141602068816821F095
:103200002A0181602068016841F0010101602046C7
:10321000BDE8104001F0BEB870B586B00446142178
:103220006846FDF739F81C492068884231D11B48AF
:10323000016841F010010160006800F01000059085
:1032400016481438016841F002010160016801F07C
:1032500002010591016841F001010160006800244C
:103260000726694600F001000590802000900225A5
:103270000B48CDE90154CDE90346FEF737FA2802A1
:103280000090CDE9015407486946CDE90346FEF7B1
:103290002DFA06B070BD0000001001404438024015
:1032A0000004024000000240FEE701688A69D24340
:1032B000920701D400228A6200688169C943C90764
:1032C00003D0816941F00101816170472DE9F0412E
:1032D0000446006890460E468069C043C00635D457
:1032E0000025202720688069C043800616D5701C01
:1032F000F8D0FEF7F1FAA0EB0800B04201D8002E9A
:10330000F0D1606C84F8405040F02000606484F894
:10331000417084F842500120BDE8F08121681020FE
:10332000C8612068C7612046FFF7BFFF20680849D1
:1033300042680A404260606C40F00400606484F8B7
:10334000417084F8425084F84050E4E70020E3E7FD
:1033500000E800FE2DE9F843174604461548DAB2A6
:10336000DDE908981E4600900023204600F056F83C
:1033700042464946204600F0BBF8B8B9012EFDB2DE
:1033800008D02068390A816242464946204600F04A
:10339000AFF858B920688562002240214B4620468C
:1033A000CDF8008000F050F8002800D00120BDE8E2
:1033B000F8830000002000802DE9F84304461648F9
:1033C00017461E46DAB20090C3022046DDE908988F
:1033D00000F024F842464946204600F089F8B8B982
:1033E000012EFDB208D02068390A81624246494662
:1033F000204600F07DF858B92068856200228021BF
:103400004B462046CDF8008000F01EF8002800D082
:103410000120BDE8F88300000020008070B500683E
:10342000C1F30901074E41EA0241049C4FF4806553
:103430004268194305EA54553543AA4321430A43D8
:10344000426070BDFF63FF032DE9F0411D46174642
:103450000E460446DDF8188008E0681C06D0FEF72A
:103460003BFAA0EB0800A8420BD855B12068806950
:1034700036EA000013D00020B842EED00020BDE8AC
:10348000F081626C002084F84000202142F020028C
:10349000626484F8411084F842000120EFE70120C3
:1034A000EAE770B516460D4604460DE03246294659
:1034B0002046FFF70BFF08B1012070BDFEF70CFAA4
:1034C000801BA84207D835B120688069C0438006B8
:1034D000ECD4002070BD626C002084F840002021F4
:1034E00042F02002626484F8411084F84200E3E76D
:1034F00070B516460D4604460FE032462946204672
:10350000FFF7E4FE08B1012070BD681C05D0FEF78E
:10351000E3F9801BA84207D835B120688069C04311
:103520008007EAD4002070BD626C002084F840005F
:10353000202142F02002626484F8411084F84200A5
:10354000E1E710B50446FEF7CDF92046BDE810408E
:10355000AFF3008010B50446FEF7DEF9002818D15D
:103560000C48844201D10C4800E00C4801210C4A6F
:10357000206000206260C4E9020120616061E061B6
:103580002062204600F00EF82046BDE81040FEF70D
:10359000C7B910BD34060020005C00400054004054
:1035A00032279140F0B542490022424B87B0424D4C
:1035B0004FF48076414C9842D1F800C04FF0120091
:1035C0004FF002034FF0040737D14CF0800CC1F8E4
:1035D00000C009680DF1080C01F0800105918021FF
:1035E000CDE900108CE88C00354F69463846FEF76F
:1035F0007DF8694638460096FEF778F8286840F46A
:1036000000002860286800F400000590206840F45D
:1036100000002060206820F40000206000220F21BC
:103620004820FEF7E3FC4820FEF7D2FC00220F21E1
:103630004920FEF7DBFC492035E04CF0020CC1F8D4
:1036400000C00968CDE9022301F00201CDE904714F
:10365000CDE900601B4E69463046FEF747F870150D
:10366000694600903046FEF741F8286840F40010A3
:103670002860286800F400100590206840F40010CD
:103680002060206820F40010206000220F211F20FD
:10369000FEF7ACFC1F20FEF79BFC00220F21202030
:1036A000FEF7A4FC2020FEF793FC07B0F0BD00005D
:1036B00030380240340600204038024020380240B2
:1036C000001C024000040240FEB50D4606464FF4C1
:1036D0007A74DDE908018DE8130029463046FEF7CB
:1036E0007BF9040003D029463046FFF72AFF204625
:1036F000FEBDFEB50D4606464FF47A74DDE90801BD
:103700008DE8130029463046FEF718FA040003D06E
:1037100029463046FFF715FF2046FEBD2DE9F84348
:1037200007461B480E461546DDE908184FF440329F
:103730001C464260174A126802EB820303EBC20286
:10374000A0F1A80303EB8202926C022A00D00022AF
:103750008260114A0260C1600D48FDF7D5FD002866
:1037600014D10B483946FDF77FFD00280ED10848DB
:103770002B46324641460094FDF78FFE002805D1C6
:10378000BDE8F84302480A21FDF700BEBDE8F88312
:10379000940400208C00002000B002402DE9FE4F70
:1037A00081460068882493468D888C2204EBCB17D1
:1037B0008A46C3689421BE46C459C3F30B432B44C5
:1037C00004F470441F04019702EBCB1240F80E4042
:1037D00001EBCB13DAF800709C214FF0AC0C01EB3D
:1037E000CB1440F2077102910CEBCB11D9F800C059
:1037F00098250020CDF800C0A02605EBCB15DCF8FD
:103800000CC006EBCB16CCF30B4C0CF1010C07EB08
:103810000C08DDF800C0019F48EA07084CF80E804C
:10382000D9F80070BAF80CC0B846FF68C7F30A07A9
:1038300067444FEA074E58F8027007F4704C48F896
:1038400002C0D9F800C0DAF80870DCF80C80C8F3C0
:103850000A0808F10108B84448EA0E084CF802804A
:10386000D9F80020D75827F00707D750D9F80070AB
:10387000DAF81020FA509AF831209AF818304FEA06
:10388000022C9AF83220120442EA0362D9F800307E
:103890001F5918519AF8303043EA0C031343D9F8F2
:1038A00000201351D9F80020535923F0FF0353513E
:1038B000D9F80020DAF814305351D9F80020935980
:1038C000029CA3439351D9F80030DAE9072422433C
:1038D0009A51D9F8002053585050D9F80020DAF8FE
:1038E00024005050DAF81000C8B301283AD0042858
:1038F0003AD0022838D0032836D0072834D0012007
:10390000D9F80030B02505EBCB11B42284245D58E2
:1039100002EBCB1205F0E0255D50DAE9003504EB4F
:10392000CB14EB1ABAF8285043434543D9F80000AA
:10393000DB1C43EA05434350D9F8000081586FF37C
:103940000A018150D9F80000DAF82C108150D9F81A
:103950000000015941F001010151BDE8FE8FFFE770
:103960000420CDE70320CBE70220C9E730B587B0BC
:103970001C216846FCF790FC0F4800220D4D1021D9
:1039800040248023C0E9005244618260C0E90321E1
:10399000C0E90632026242628262009101910291A4
:1039A00003910491059106916946FFF723F907B049
:1039B00030BD0000400100A0D00200202DE9F04FF2
:1039C00087B014216846FCF767FCFE48016841F0A7
:1039D00010010160016801F010010591016841F0DA
:1039E00040010160016801F040010591016841F06A
:1039F00002010160016801F002010591016841F0D6
:103A000008010160016801F008010591016841F0B9
:103A100004010160016801F004010591016841F0B1
:103A200001010160016801F001010591016841F4A3
:103A300000710160016801F400710591016841F4B1
:103A400080710160016801F480710591016841F4A1
:103A500080610160016801F480610591016841F0B5
:103A600020010160016801F020010591016841F029
:103A70008001016000680122202100F08000059093
:103A8000D148FDF724FFD148002241F20E01FDF795
:103A90001EFFCF4800220821FDF719FFCD48002264
:103AA0004FF40051FDF713FFCB480022C821FDF76A
:103AB0000EFF00244FF0080AC84869460294CDE979
:103AC00000A4FDF713FE09204FF004090326CDF8EA
:103AD000009002256946CDE90360C048CDE9015454
:103AE000FDF704FE4FF4D0400294CDE900050B2011
:103AF0006946CDE90360B848FDF7F8FD012769463E
:103B0000300200901220CDE90107B548CDE9034904
:103B1000FDF7ECFD02AA43F62340CDE900054FF086
:103B20000A08AF4882E850016946FDF7DFFD102022
:103B30000090CDE90154AA486946CDE90345FDF757
:103B4000D5FD80200090CDE901549F486946CDE91C
:103B5000034AFDF7CBFD4FF4F8500294CDE9000580
:103B60000C206946CDE903609E48FDF7BFFDA80320
:103B70000090CDE901549C486946CDE90347FDF723
:103B8000B5FD60204FF00D0B00906946CDE9015462
:103B90009248CDE9034BFDF7A9FD4020694602AAF2
:103BA000CDE900058E4882E85001FDF79FFDE8024F
:103BB0006946CDE900048D480294FDF797FD402049
:103BC00000908B486946CDE901047F48FDF78EFDE2
:103BD0004FF4E050694602AACDE90005824882E828
:103BE0005001FDF783FDF0200090CDE901547748A6
:103BF0006946CDE90348FDF779FD68020090CDE9FB
:103C0000015475486946CDE90348FDF76FFD202052
:103C10000090CDE901746C4869460394FDF766FD98
:103C2000CDF800A06946CDE901546748CDE9034BC2
:103C3000FDF75CFD41F20E000090CDE90174634890
:103C400069460394FDF752FD28036946CDE9000457
:103C500064480294FDF74AFDCDF800A06946CDE91D
:103C600001745B480394FDF741FD28020090CDE903
:103C7000015459486946CDE9034BFDF737FD102043
:103C80006946CDE9000450480294FDF72FFD0C2051
:103C9000CDF800906946CDE903604B48CDE9015469
:103CA000FDF724FD48F204006946CDE900044948C7
:103CB0000294FDF71BFD28030090CDE901744548EF
:103CC00069460394FDF712FD4FF4BC400090CDE926
:103CD000015440486946CDE9034BFDF707FD0097C5
:103CE0006946CDE901543948CDE90345FDF7FEFCAD
:103CF000A80200903F486946CDE901043348FDF72A
:103D0000F5FC280300903A486946CDE901042F48A4
:103D1000FDF7ECFCC020694602AACDE90005314858
:103D200082E85004FDF7E2FC1020694602AACDE9C2
:103D30000005284882E85001FDF7D8FCC820009013
:103D4000CDE90174244869460394FDF7CFFC4FF494
:103D5000F8606946CDE9000627480294FDF7C6FCE5
:103D60000520694602AACDE900051E4882E85001F7
:103D7000FDF7BCFC32200294CDE900050B2069461A
:103D8000CDE903601748FDF7B1FC0920CDF800909C
:103D90006946CDE903601248CDE90154FDF7A6FC60
:103DA0004FF460500294CDE9000509206946CDE941
:103DB00003600548FDF79AFC07486946CDE9009481
:103DC00002941BE030380240000C02400020024008
:103DD00000280240001C024000180240001002406F
:103DE000000402400008024000000240002402409B
:103DF000000012100000111000140240FDF776FCC4
:103E000086200294CDE900050B206946CDE90360C8
:103E10002048FDF76BFC009769461E48CDE9016418
:103E2000FDF764FC50200090CDE901541948694623
:103E3000CDE9034BFDF75AFCF10100911221164820
:103E4000CDE90117CDE903696946FDF74FFC28214B
:103E5000104802AACDE90015694682E85001FDF735
:103E600045FC092040210091CDE90154CDE90340F2
:103E700009486946FDF73AFC0521B0030090CDE9F9
:103E80000154CDE9034105486946FDF72FFC07B011
:103E9000BDE8F08F00000240001C02400004024018
:103EA000F0B59BB034216846FCF7F6F934210DA833
:103EB000FCF7F2F92A480024284B072140F2E517C5
:103EC00040F28E264FF4257C0360052544600322D2
:103ED00084600E23C460C0E90441B91CC0E90BC171
:103EE00000F1180181E8EC0080F8344080F835409A
:103EF00080F83640FDF730FF4FF48066019402945D
:103F0000002200946946CDE906468DF830400394BE
:103F1000049405948DF831401148CDE908540A9471
:103F20000B948DF83240FDF7EBFE0D9401220E94B8
:103F30000DA90F94109411941294CDE91346CDE974
:103F400015548DF864408DF8654005481794189411
:103F50008DF86640FDF7D4FE1BB0F0BD006801404F
:103F60001801002010B588B0134800241149A72279
:103F700040F2E7330594069403940494009401946A
:103F8000029480E81600C0E9033444618461FEF7BE
:103F9000E5FE4FF480500390074803A9FEF77AFF2F
:103FA00005486946009401940294FEF785FE08B026
:103FB00010BD000000000140D00100203EB50D48BA
:103FC000002442F603110A4A00940194029484608A
:103FD000C0E900210849096C8461C160FEF7BEFE9A
:103FE0000448694600940294FEF766FE3EBD000058
:103FF0000010004010020020000000200A480021AC
:1040000030B4084C0C224FF4E1330460C0E90131B4
:10401000C160C0E904128161C1610162416230BCCA
:10402000FFF7C7B80010014050020020FEE77047BC
:1040300070477047FDF730BE70B5B4B0302121A88D
:10404000FCF72AF914212DA8FCF726F984216846EB
:10405000FCF722F92148016841F0805101600068B5
:1040600000F0805032901E48016841F440410160E8
:104070000068002529AB00F44040329002242194CE
:1040800010200821D222CDE9274583E81600012619
:104090002C94CDE9246021A8FEF778FBFDF7D8FF2A
:1040A000E2024FF4A0510F20CDE930122DAA0621D3
:1040B00082E831002DA8FEF77FFACDE907450948CF
:1040C000402100906846CDE90A6511951F95CDE91C
:1040D0000514FDF7F3FF34B070BD00004038024016
:1040E000007000404800200005484FF00061036860
:1040F000034A43F470030360803A11607047000084
:1041000088ED00E00148FEF734BF0000D001002038
:104110000148FEF72EBF0000D00100200148FEF745
:1041200028BF0000D00100200148FEF722BF000098
:10413000D00100200148FEF71CBF00001002002043
:10414000F0B5274B4FF0804E264D02689842264E20
:10415000264F274C09D0704507D0A84205D0B04261
:1041600003D0B84201D0A04205D1D1F804C022F05A
:1041700070024CEA020298421BD0704519D0A84246
:1041800017D0B04215D0B84213D0A04211D0194D6B
:10419000A8420ED0184DA8420BD0184DA84208D006
:1041A000174DA84205D0174DA84202D0164DA8427F
:1041B00003D1CD6822F440722A434D6922F0800277
:1041C0002A43026098428A68C2620A68826201D009
:1041D000A04201D10969016301214161F0BD0000E4
:1041E000000001400004004000080040000C0040B6
:1041F00000040140004001400044014000480140EB
:1042000000180040001C00400020004042EA032249
:1042100083680A4323F47F410A43826070478268BF
:1042200022F070020A4342F007018160704710B526
:10423000036A046A23F00A0324F001040462846917
:104240000B4324F0F00141EA02118161036210BDC9
:1042500010B5036A23F0100303628369046A23F430
:10426000704324F0A00443EA0232826144EA01115F
:10427000016210BDFDF7CEB90148FFF76BB9000030
:10428000340600203EB50124002202AB8DF8082040
:10429000CDE900340A46234601460348FFF714FAE5
:1042A0009DF808003EBD00003406002007B501233C
:1042B00082B004AACDE900230A4601460248FFF76E
:1042C00018FA05B000BD00003406002090F8241054
:1042D000C90706D00168836A4A6822F400321A438B
:1042E0004A6090F82410890706D50168C36A4A68B5
:1042F00022F480321A434A6090F82410490706D508
:104300000168036B4A6822F480221A434A6090F8DD
:104310002410090706D50168436B4A6822F400425D
:104320001A434A6090F82410C90606D50168836BC9
:104330008A6822F480521A438A6090F82410890611
:1043400006D50168C36B8A6822F400521A438A605A
:1043500090F82410490611D50168036C4A6822F4CC
:1043600080121A434A60016CB1F5801F06D10168C2
:10437000436C4A6822F4C0021A434A6090F8241041
:10438000090606D50168826C486820F400201043B5
:104390004860704738B500250446C567FDF79CFAAC
:1043A00003462068006800070BD56FF07E40009040
:1043B000002220464FF4001100F038F908B1032024
:1043C00038BD2020606784F87050A067002038BD99
:1043D0002DE9F04104468068DFF820C2884F236849
:1043E000D4E90452E16928431E6800250A4385493F
:1043F000104306EA0C0606431E604FF40042206894
:10440000E668436823F44053334343602368A66956
:10441000206AD3F808C030432CF4306606439E600F
:104420002068B8420AD1086810F0030052D0012871
:104430007BD002287AD003286ED186E0724B984256
:104440000AD1086810F00C0079D004287BD0082825
:1044500077D00C2860D178E06C4B98420AD108687C
:1044600010F030006BD010286DD0202869D0302893
:1044700052D16AE0664B98420AD1086810F0C00039
:104480005DD040285FD080285BD0C02844D15CE05C
:10449000604B98420DD1086810F440704FD0B0F5D1
:1044A000807F50D0B0F5007F4BD0B0F5407F33D146
:1044B0004BE0594B98420FD1086810F4406009D086
:1044C000B0F5806F3FD0B0F5006F3AD0B0F5406FD7
:1044D00022D13AE0012120E0504B98420DD10868EA
:1044E00010F440502BD0B0F5805F2CD0B0F5005FB9
:1044F00027D0B0F5405F0FD127E0494B98420BD150
:10450000086810F440401AD0B0F5804F1BD090429C
:1045100017D0B0F5404F18D01021E0694FF6EF7674
:1045200090423AD1092961D202E00CE009E006E0AC
:10453000DFE801F00D10255C285C5C5C2B0000219D
:10454000EBE70221E9E70421E7E70821E5E7FEF7C9
:10455000CBF801E0FEF7D8F86168400000EB5100AD
:10456000B0FBF1F080B2A0F11001B1423ED84FF69D
:10457000F0732168C0F342021840104326E0294935
:10458000606805E0FEF7D0F8E6E760684FF4803138
:1045900001EB5001B1FBF0F0E4E7092926D2DFE896
:1045A00001F0050817251C2525251F00FEF79CF89E
:1045B00001E0FEF7A9F8616800EB5100B0FBF1F0F3
:1045C00080B2A0F11001B14210D82168C8600EE09D
:1045D0006068154901EB500105E0FEF7A5F8EAE730
:1045E000606802EB5001B1FBF0F0E9E70125002023
:1045F000206660662846BDE8F0810000F369FFEFA1
:104600000010014090380240004400400048004043
:10461000004C004000500040001401400078004071
:10462000007C00400048E8010024F4002DE9F04738
:104630009A4617460E460446089D4FF000094FF073
:10464000200839E0681C37D0FDF746F9A0EB0A00D6
:10465000A84222D80DB32068016849072CD5C0694B
:10466000C043000528D423684FF400611962216813
:104670000B6823F4D0730B6021688B6823F001036F
:104680008B60C4F87480C4F87880C4F87C8000BF64
:10469000032084F87090BDE8F08721680B6823F44C
:1046A000D0730B6021688B6823F001038B60C4F822
:1046B0007480C4F87880EBE72068C06936EA0000AF
:1046C00004D00020B842BDD00020E4E70120F9E783
:1046D000FEE700000FB4084B10B504A902AA039826
:1046E00000F02CF8044602A9002000F0D1F8204682
:1046F00010BC5DF814FB0000914800080907002871
:104700004FEA116104DB00F1E02080F800147047EB
:1047100000F00F0000F1E02080F8141D704702E067
:1047200008C8121F08C1002AFAD17047704700203C
:1047300001E001C1121F002AFBD170472DE9FF4F94
:1047400089B09B460446002506E025280BD05A4632
:104750000B999047641C6D1C20780028F5D10DB092
:104760002846BDE8F08F0027B8460122474900E0FF
:10477000074314F8013F203B02FA03F00842F7D147
:1047800020782E2819D114F8010F47F004072A28A1
:104790000ED06FF02F022078A0F1300109290CD83B
:1047A00008EB880102EB410100EB0108641CF2E711
:1047B0000A98641C50F8048B0A9020780028CED008
:1047C000642808D0692806D075281ED05A460B994F
:1047D00090476D1C58E00A994FF00A0901C90A91E7
:1047E000002802DA40422D2102E0390504D52B21B0
:1047F0008DF82010012103E0F90704D02021F7E70C
:104800008A4608AE0DE00021FAE70A994FF00A093E
:1048100001C90A91F7E74946FBF749FD303106F82F
:10482000011D0028F7D1ADEB060000F12009780743
:1048300001D44FF00108C84502DDA8EB090000E0F3
:1048400000208046002706E008A85A46C05D0B9964
:1048500090476D1C7F1C5745F6DB04E030205A461C
:104860000B9990476D1CB8F10001A8F10108F5DC27
:1048700005E016F8010B5A460B9990476D1CB9F1EB
:104880000001A9F10109F4DC641C65E709280100B5
:104890000A68531C0B6010707047000010B5044C80
:1048A0002078002803D1FFF7E7FC0120207010BD1D
:1048B000D2000020C82010B5FFF7DCFCBDE8104096
:1048C000FFF7ECBFF8B5064600208DF8000004465F
:1048D0000546FFF7E3FFA821F0B2FFF7D3FC8DF800
:1048E00000009DF80000512800D10125641CE4B2AD
:1048F000032C01D2002DEED09DF80000F8BD7047CA
:104900007047000038B500248DF800400221C0B285
:10491000FFF7B8FC8DF800009DF8000000F00F00D4
:104920008DF800009DF80000052801D98DF80040A1
:104930009DF800100248417084709DF8000038BD59
:10494000D20000200022A421C0B2FFF7AFBC012298
:10495000A421C0B2FFF7AABC38B50C4600218DF8DF
:1049600000100121C0B2FFF78DFC8DF800009DF80A
:104970000000206038BD00002DE9F84306461F46C0
:1049800000209046DDF820900A468DF80000014690
:104990002B4800252C46407890424FD90A2A2DD228
:1049A000DFE802F005090D1115191D212529032144
:1049B0000725082422E009210D250E241EE00F21E1
:1049C000132514241AE0152119251A2416E01B2199
:1049D0001F25202412E02121252526240EE0272151
:1049E0002B252C240AE02D213125322406E0332109
:1049F0003725382402E039213D253E24F0B2FFF767
:104A000041FC8DF800009DF800008109C9F80010F4
:104A10002946F0B2FFF736FC8DF800009DF8001033
:104A2000F0B2C8F800102146FFF72CFC8DF800000A
:104A30009DF80000042101EA10103860BDE8F883F9
:104A4000D20000202DE9F84F8A460746444800214D
:104A500093468DF800100E460D460C46827843783A
:104A60009A427AD20A2A814637D2DFE802F0050A52
:104A70000F14191E23282D32042103260625052490
:104A80002BE00A2109260C250B2426E010210F26F5
:104A90001225112421E016211526182517241CE0C3
:104AA0001C211B261E251D2417E02221212624253A
:104AB000232412E0282127262A2529240DE02E214F
:104AC0002D2630252F2408E03421332636253524A1
:104AD00003E03A2139263C253B24F8B2FFF7D2FB0C
:104AE0008DF800009DF80010F8B2DFF87480A8F18E
:104AF0000208A8F800103146FFF7C4FB8DF800004B
:104B00009DF80010B8F8000001F00F0140EA012004
:104B1000A8F800002946AAF80000F8B2FFF7B2FB97
:104B20008DF800009DF80010F8B2A8F8001021469A
:104B3000FFF7A8FB8DF800009DF80020B8F80010E2
:104B400002F00F0241EA0221A8F80010ABF80010B1
:104B500099F80210491C89F80210BDE8F88F00008E
:104B6000D200002000207047FFF7ECBE2DE9F0478F
:104B7000AA4C012600254FF07F49206A012804D164
:104B80004846E661FBF7DAFB2562606A08B928202F
:104B90006062E36BA26BA2A1A348FFF79BFD012318
:104BA000A14A00201946FBF729FC616DD4204A1E5A
:104BB000312A05D2A26D0BE01E2A0DDA65640DE0E4
:104BC000E26D521E312A09D2A36E226E934205D0A5
:104BD000F22AF1DD606401E01E3A6264A1F2AF11D5
:104BE000312905D2A16D0CE01E290EDAA5640EE074
:104BF000E16DA1F2AF11312909D2A26E216E8A4274
:104C000005D0F229F0DDA06401E01E39A164E36D56
:104C1000032163660220236E0627A3664FF4877282
:104C2000236F082B29D2DFE803F0040A1016282886
:104C30001C23E26A8332052A1FDC21671DE0E26A39
:104C40008332052A19DC206717E0E36A8D3393422B
:104C500013DD266711E0E36A8D3393420DDD25678E
:104C60000BE0E26A8332052A07DC0722226704E0B0
:104C7000E36A8D33934200DD27674FF4E178A26A3F
:104C8000F0321E2A1EDBA26AF032242A1ADCE26A03
:104C9000636C88329A4215DD626CE36A3C32883379
:104CA0009A420FDD206F012806D0206F022805D020
:104CB000206F042804D052E0256750E021674EE0C1
:104CC00005201CE0A16AF03141451EDCA16AF031EB
:104CD000B1F5DE7F19DBE16AA26C8831914214DD07
:104CE000A16CE26A3C31883291420EDD216F0329CA
:104CF00005D0206F28B1206F052804D02FE0206751
:104D00002DE026672BE00420F9E7A06AF0300A289E
:104D10000CDAE06A616C8830884201DD606CE06A20
:104D2000A562E562E06B401CE06310E0A06AF03031
:104D3000B0F5EB7F13DDE06AA16C8830884201DDBD
:104D4000A06CE06AA562E562A06B401CA0633748D6
:104D5000FDF718FFB0FBF7F107FB1100CFE748465E
:104D6000FBF7C8FE606B226B883081B2F03290B2E4
:104D70000822FBF7A3FCE06C616C884206D0606CF3
:104D80000522002183B21E20FBF7FAFC206DA16CE6
:104D9000884206D0A06C0522002183B24046FBF772
:104DA000EFFCE06C616C884207D0606CD423052274
:104DB0003C3081B21E20FBF7E3FC206DA16C8842E1
:104DC00007D0A06CD42305223C3081B24046FBF7CB
:104DD000D7FC4FF0FF30FBF78DFE606C3C230522C3
:104DE00081B21E20FBF7CCFCA06C3C23052281B2D3
:104DF0004046FBF7C5FCE06AA26A883081B2F03217
:104E000090B20522FBF75AFC606CE064A06C206550
:104E1000A06A2063E06A6063BDE8F08700000020BC
:104E200025643A25640000001F030020C001002013
:104E30002DE9F0413F4C002501264FF07F47E06906
:104E4000012804D1C4E907563846FBF777FAA06970
:104E5000092806D1606A20B93846FBF76FFA32207C
:104E60006062394834A1A269FFF734FC0123364A55
:104E700082211846FBF7C2FAA168606D88421FD0F4
:104E8000226990421CD0E368A26D9A4218D06769EB
:104E9000236EBB4214D0A0F1D3033B2B06D2A2F168
:104EA00065033B2B02D2A3695B1EA361A0F5997336
:104EB0003B2B05D2653A3B2A02D2A269521CA26161
:104EC000A2690A2A02DD0A22A26102E0012A00DAAE
:104ED000A66163222161E1686161A060A06DE0606C
:104EE000A0690B2811D2DFE800F01006080B0D0FA7
:104EF0000F1C1E2022008C2000E08220206404E091
:104F00007820FBE76F20F9E72264FFF757F8A562E6
:104F1000E5620E48FDF736FE00F007002067BDE8A9
:104F2000F0815A20EAE75020E8E74620E6E73C20F7
:104F3000E4E70000000000205350454544202D20A8
:104F400020256420202B000004030020C001002045
:104F5000FCF7AAFEFFF770F8FEF730FD3348002497
:104F60003149C0E900148460C4608462C46204638F
:104F70004463FCF7C9F92D480121FCF775F9FEF7E8
:104F80008FFFFFF73BF8FEF7F1FCFEF7EBFFFFF7B3
:104F900015F826492648E83108600846FDF7FDFD6A
:104FA000FBF75CFC01204FF04041FBF7A9FC01201E
:104FB000FBF77EFDFBF708FA4FF07F452846FBF72D
:104FC0007DFD601EFBF796FD2846FBF7B7F9C8216B
:104FD0000120FBF79BFD2846FBF7B0F94FF48871E1
:104FE0004FF4F070FBF7B4FF1048F830FDF73CFFCA
:104FF0001048FDF739FF0F485038FDF7C3FD0E4D3F
:1050000000F00700C5F8700000F018F8686820B1DB
:10501000012804D1FFF70CFF01E0FFF7A7FD686846
:105020000228F1DB6C60EFE700B00240D8000020FE
:1050300000080650100200200000002070B5094C46
:10504000094D606808B9606AC0070748FBF79AFE17
:1050500068886065A889A065A888E065E8892066F9
:1050600070BD0000000000203C0300200006101668
:1050700000061016000000000000000001020304FA
:1050800006070809000000000102030400000000F8
:105090000000000000000000000000000000000010
:1050A0000000000000000000000000000000000000
:1050B00000000000000000000000000000000000F0
:1050C00000000000000000000000000000000000E0
:1050D00000000000000000000000038000038000CA
:1050E000038000038000038000038000038000032E
:1050F00080000380000100000100000000000000AB
:105100000003800003800000000000000000000099
:10511000000000000000000000000000000000008F
:1051200000000000000E70000E70000E70000420E1
:105130000004200004200004200000000000000003
:10514000000000000000000000000000000000005F
:10515000000000000000000000000000000000004F
:105160000000000000000000000006600006600073
:105170000660000660000660003FF8003FF8000689
:1051800060000CC0003FF8003FF8000CC0000CC0ED
:10519000000CC0000CC0000CC000000000000000AB
:1051A00000000000000000000000000000000001FE
:1051B000800001800007B0000FF000187000187028
:1051C000001C00000F800007E00000F00018300015
:1051D0001C30001C70001FE0001BC000018000019B
:1051E000800001800001800000000000000000003D
:1051F000000000000000000000000780000FC00059
:105200001CE0001860001860001CE0000FF80007A8
:10521000E0001FF0000738000618000618000738E5
:105220000003F00001E000000000000000000000AA
:10523000000000000000000000000000000000006E
:10524000000000000000000003F00007F0000C6008
:10525000000C00000C00000600000700000F9C007E
:105260001DFC0018F0001870000FFC0007DC0000A7
:10527000000000000000000000000000000000002E
:10528000000000000000000000000000000380009B
:105290000380000380000100000100000100000104
:1052A00000000000000000000000000000000000FE
:1052B00000000000000000000000000000000000EE
:1052C00000000000000000000000000000000000DE
:1052D000000000180000380000700000F00000E03E
:1052E0000000E00001C00001C00001C00001C000DA
:1052F00001C00001C00000E00000E00000700000FC
:1053000070000038000018000000000000000000DD
:10531000000000000000000000001800001C000059
:105320000E00000E000007000007000003800003CD
:1053300080000380000380000380000380000700DA
:10534000000700000F00000E00001C000018000005
:10535000000000000000000000000000000000004D
:1053600000000180000180000180001DB8001FF8CE
:105370000007E00003C00003C000066000066000F4
:10538000000000000000000000000000000000001D
:10539000000000000000000000000000000000000D
:1053A00000000000000000000000000000000000FD
:1053B0000180000180000180000180000180003F29
:1053C000FC003FFC000180000180000180000180A2
:1053D000000180000000000000000000000000004C
:1053E00000000000000000000000000000000000BD
:1053F00000000000000000000000000000000000AD
:10540000000000000000000000000000000000009C
:1054100000000000000000E00000C00001C000012A
:105420008000018000030000030000000000000075
:10543000000000000000000000000000000000006C
:105440000000000000000000000000000000001F3D
:10545000F8001FF80000000000000000000000003D
:10546000000000000000000000000000000000003C
:10547000000000000000000000000000000000002C
:10548000000000000000000000000000000000001C
:10549000000000000000000000000000000000000C
:1054A00000000000000003C00003C00003C00000B3
:1054B00000000000000000000000000000000000EC
:1054C0000000000000180000180000380000300044
:1054D00000700000600000600000C00000C000011B
:1054E00080000180000300000300000600000600A9
:1054F000000E00000C00001C000018000018000046
:10550000000000000000000000000000000000009B
:10551000000003C00007E0000C30000C3000181839
:10552000001818001818001818001818001818008B
:105530001818000C30000C300007E00003C0000019
:10554000000000000000000000000000000000005B
:105550000000000000000000000000800007800044
:105560001F80001D8000018000018000018000017B
:105570008000018000018000018000018000018026
:10558000001FF8001FF800000000000000000000ED
:10559000000000000000000000000000000000000B
:1055A000000007C0001FF00038300030180030182D
:1055B0000000180000300000600001C000038000FF
:1055C0000600000C00001800003FF8003FF8000043
:1055D00000000000000000000000000000000000CB
:1055E0000000000000000000000003C0000FE00009
:1055F0000C700000300000300000600003C00003A9
:10560000E0000070000018000018000018001838B2
:10561000001FF0000FC000000000000000000000AC
:10562000000000000000000000000000000000007A
:10563000000000E00001E00001E0000360000660FF
:10564000000660000C60000C600018600030600014
:105650003FF8003FF80000600003F80003F8000086
:10566000000000000000000000000000000000003A
:10567000000000000000000000001FF0001FF0000C
:105680001800001800001800001BC0001FF0001CCC
:10569000300000180000180000180000180030301A
:1056A000003FF0000FC000000000000000000000FC
:1056B00000000000000000000000000000000000EA
:1056C000000000F80003F8000700000E00000C00C6
:1056D000001800001BC0001FF0001C30001818004C
:1056E0001818001818000C38000FF00003E0000034
:1056F00000000000000000000000000000000000AA
:10570000000000000000000000001FF8001FF8006B
:105710001818001838000030000030000070000039
:10572000600000600000E00000C00000C00001C098
:105730000001800001800000000000000000000067
:105740000000000000000000000000000000000059
:10575000000007E0000FF0001C38001818001818AF
:10576000000C300007E00007E0000C3000181800C3
:105770001818001818001C38000FF00007E000008F
:105780000000000000000000000000000000000019
:105790000000000000000000000007C0000FF00043
:1057A0001C30001818001818001818000C38000FCA
:1057B000F80003D80000180000300000700000E07E
:1057C000001FC0001F0000000000000000000000DB
:1057D00000000000000000000000000000000000C9
:1057E000000000000000000000000000000003C0F6
:1057F0000003C00003C00000000000000000000023
:1058000000000000000003C00003C00003C000004F
:105810000000000000000000000000000000000088
:105820000000000000000000000000000000000078
:1058300000000000000000F00000F00000F0000098
:10584000000000000000000000000000E00001C0B7
:105850000001800001800003000002000000000041
:105860000000000000000000000000000000000038
:105870000000000000000000001C00003C0000F0E0
:105880000003C0000F00003C0000F000003C0000DE
:105890000F000003C00000F000003C00001C0000EE
:1058A00000000000000000000000000000000000F8
:1058B00000000000000000000000000000000000E8
:1058C0000000000000000000007FFC007FFC0000E2
:1058D00000000000007FFC007FFC000000000000D2
:1058E00000000000000000000000000000000000B8
:1058F00000000000000000000000000000000000A8
:1059000000000000000000007000007800001E0091
:105910000007800001E000007800001E0000780011
:1059200001E0000780001E00007800007000000009
:105930000000000000000000000000000000000067
:105940000000000000000000000000000007C00090
:105950000FE00018700018300018300000700000D0
:10596000E00003C00003800003000000000000000E
:105970000007000007000000000000000000000019
:105980000000000000000000000000000000000017
:10599000000003E00007F0000E38000C1800187833
:1059A0000018F80019D800199800199800199800E3
:1059B00018F8001878001800000C00000E180007F6
:1059C000F80003E0000000000000000000000000FC
:1059D000000000000000000000000000001F800028
:1059E0001FC00001C0000360000360000630000615
:1059F00030000C30000FF8001FF800180C00300CBD
:105A000000FC7F00FC7F00000000000000000000A0
:105A10000000000000000000000000000000000086
:105A200000000000007FE0007FF000183800181828
:105A3000001818001838001FF0001FF800181C008C
:105A4000180C00180C00180C007FF8007FF0000004
:105A50000000000000000000000000000000000046
:105A60000000000000000000000000000003EC0047
:105A70000FFC001C1C00180C00300C003000003023
:105A80000000300000300000300000180C001C1C2A
:105A9000000FF80003F0000000000000000000000C
:105AA00000000000000000000000000000000000F6
:105AB00000000000007FC0007FF0001838001818B8
:105AC00000180C00180C00180C00180C00180C0022
:105AD000180C001818001838007FF0007FE0000054
